{
  "address": "0xDC000C5d66d82973C54DEC46005EF1C2f60C3458",
  "abi": [
    {
      "inputs": [
        {
          "internalType": "address",
          "name": "_nftAddress",
          "type": "address"
        },
        {
          "internalType": "uint256",
          "name": "_price",
          "type": "uint256"
        },
        {
          "internalType": "string",
          "name": "_placeholderURI",
          "type": "string"
        }
      ],
      "stateMutability": "nonpayable",
      "type": "constructor"
    },
    {
      "anonymous": false,
      "inputs": [
        {
          "indexed": false,
          "internalType": "address",
          "name": "_admin",
          "type": "address"
        },
        {
          "indexed": false,
          "internalType": "bool",
          "name": "_enabled",
          "type": "bool"
        }
      ],
      "name": "NewAdminSet",
      "type": "event"
    },
    {
      "anonymous": false,
      "inputs": [
        {
          "indexed": true,
          "internalType": "address",
          "name": "previousOwner",
          "type": "address"
        },
        {
          "indexed": true,
          "internalType": "address",
          "name": "newOwner",
          "type": "address"
        }
      ],
      "name": "OwnershipTransferred",
      "type": "event"
    },
    {
      "anonymous": false,
      "inputs": [
        {
          "indexed": false,
          "internalType": "uint256",
          "name": "_nftId",
          "type": "uint256"
        },
        {
          "indexed": false,
          "internalType": "address",
          "name": "_buyer",
          "type": "address"
        },
        {
          "indexed": false,
          "internalType": "uint256",
          "name": "_price",
          "type": "uint256"
        }
      ],
      "name": "Sold",
      "type": "event"
    },
    {
      "inputs": [
        {
          "internalType": "address",
          "name": "admin",
          "type": "address"
        }
      ],
      "name": "isAdmin",
      "outputs": [
        {
          "internalType": "bool",
          "name": "",
          "type": "bool"
        }
      ],
      "stateMutability": "view",
      "type": "function"
    },
    {
      "inputs": [],
      "name": "nftContract",
      "outputs": [
        {
          "internalType": "contract TestorinoNFT",
          "name": "",
          "type": "address"
        }
      ],
      "stateMutability": "view",
      "type": "function"
    },
    {
      "inputs": [],
      "name": "owner",
      "outputs": [
        {
          "internalType": "address",
          "name": "",
          "type": "address"
        }
      ],
      "stateMutability": "view",
      "type": "function"
    },
    {
      "inputs": [],
      "name": "placeholderURI",
      "outputs": [
        {
          "internalType": "string",
          "name": "",
          "type": "string"
        }
      ],
      "stateMutability": "view",
      "type": "function"
    },
    {
      "inputs": [],
      "name": "price",
      "outputs": [
        {
          "internalType": "uint256",
          "name": "",
          "type": "uint256"
        }
      ],
      "stateMutability": "view",
      "type": "function"
    },
    {
      "inputs": [],
      "name": "purchase",
      "outputs": [],
      "stateMutability": "payable",
      "type": "function"
    },
    {
      "inputs": [],
      "name": "renounceOwnership",
      "outputs": [],
      "stateMutability": "nonpayable",
      "type": "function"
    },
    {
      "inputs": [
        {
          "internalType": "address",
          "name": "admin",
          "type": "address"
        },
        {
          "internalType": "bool",
          "name": "enabled",
          "type": "bool"
        }
      ],
      "name": "setAdmin",
      "outputs": [],
      "stateMutability": "nonpayable",
      "type": "function"
    },
    {
      "inputs": [
        {
          "internalType": "uint256",
          "name": "_price",
          "type": "uint256"
        }
      ],
      "name": "setPrice",
      "outputs": [],
      "stateMutability": "nonpayable",
      "type": "function"
    },
    {
      "inputs": [
        {
          "internalType": "address",
          "name": "newOwner",
          "type": "address"
        }
      ],
      "name": "transferOwnership",
      "outputs": [],
      "stateMutability": "nonpayable",
      "type": "function"
    },
    {
      "inputs": [
        {
          "internalType": "address",
          "name": "",
          "type": "address"
        }
      ],
      "name": "userPurchases",
      "outputs": [
        {
          "internalType": "uint256",
          "name": "_value",
          "type": "uint256"
        }
      ],
      "stateMutability": "view",
      "type": "function"
    },
    {
      "inputs": [],
      "name": "withdrawETH",
      "outputs": [],
      "stateMutability": "nonpayable",
      "type": "function"
    },
    {
      "inputs": [
        {
          "internalType": "address",
          "name": "tokenAddress",
          "type": "address"
        },
        {
          "internalType": "uint256",
          "name": "amount",
          "type": "uint256"
        },
        {
          "internalType": "address",
          "name": "wallet",
          "type": "address"
        }
      ],
      "name": "withdrawTokens",
      "outputs": [],
      "stateMutability": "nonpayable",
      "type": "function"
    }
  ],
  "transactionHash": "0x67d598aa50c5e406669a97cb4ab4c1d9e93d110af24b6005cb5afe9cde46dae6",
  "args": [
    "0xc37e69cFdbA579338C6a1c621ce6C01AFAeAB997",
    "100000000000000000",
    ""
  ],
  "numDeployments": 1,
  "solcInputHash": "2d48b330d0272fde365811dbd17b92fe",
  "bytecode": "0x60806040523480156200001157600080fd5b5060405162000ddd38038062000ddd8339810160408190526200003491620001f3565b6200003f33620000ee565b6200005e836001600160a01b03166200013e60201b620006681760201c565b620000af5760405162461bcd60e51b815260206004820152601e60248201527f4e46542061646472657373206d757374206265206120636f6e74726163740000604482015260640160405180910390fd5b600280546001600160a01b0319166001600160a01b03851617905560048290558051620000e49060059060208401906200014d565b505050506200034f565b600080546001600160a01b038381166001600160a01b0319831681178455604051919092169283917f8be0079c531659141344cd1fd0a4f28419497f9722a3daafe3b4186f6b6457e09190a35050565b6001600160a01b03163b151590565b8280546200015b90620002fc565b90600052602060002090601f0160209004810192826200017f5760008555620001ca565b82601f106200019a57805160ff1916838001178555620001ca565b82800160010185558215620001ca579182015b82811115620001ca578251825591602001919060010190620001ad565b50620001d8929150620001dc565b5090565b5b80821115620001d85760008155600101620001dd565b6000806000606084860312156200020957600080fd5b83516001600160a01b03811681146200022157600080fd5b60208581015160408701519295509350906001600160401b03808211156200024857600080fd5b818701915087601f8301126200025d57600080fd5b81518181111562000272576200027262000339565b604051601f8201601f19908116603f011681019083821181831017156200029d576200029d62000339565b816040528281528a86848701011115620002b657600080fd5b600093505b82841015620002da5784840186015181850187015292850192620002bb565b82841115620002ec5760008684830101525b8096505050505050509250925092565b600181811c908216806200031157607f821691505b602082108114156200033357634e487b7160e01b600052602260045260246000fd5b50919050565b634e487b7160e01b600052604160045260246000fd5b610a7e806200035f6000396000f3fe6080604052600436106100c25760003560e01c80638da5cb5b1161007f578063a035b1fe11610059578063a035b1fe14610223578063d56d229d14610239578063e086e5ec14610259578063f2fde38b1461026e57600080fd5b80638da5cb5b146101b157806391b7f5ed146101e35780639bc5c5091461020357600080fd5b806324d7806c146100c757806339f65c09146101155780634b0bddd21461015057806364edfbf014610172578063715018a61461017a5780637313cba91461018f575b600080fd5b3480156100d357600080fd5b506101006100e23660046107d8565b6001600160a01b031660009081526001602052604090205460ff1690565b60405190151581526020015b60405180910390f35b34801561012157600080fd5b506101426101303660046107d8565b60036020526000908152604090205481565b60405190815260200161010c565b34801561015c57600080fd5b5061017061016b3660046107fa565b61028e565b005b610170610325565b34801561018657600080fd5b50610170610380565b34801561019b57600080fd5b506101a46103b4565b60405161010c9190610975565b3480156101bd57600080fd5b506000546001600160a01b03165b6040516001600160a01b03909116815260200161010c565b3480156101ef57600080fd5b506101706101fe36600461088a565b610442565b34801561020f57600080fd5b5061017061021e366004610831565b6104c5565b34801561022f57600080fd5b5061014260045481565b34801561024557600080fd5b506002546101cb906001600160a01b031681565b34801561026557600080fd5b50610170610577565b34801561027a57600080fd5b506101706102893660046107d8565b6105d0565b6000546001600160a01b031633146102c15760405162461bcd60e51b81526004016102b8906109ca565b60405180910390fd5b6001600160a01b038216600081815260016020908152604091829020805460ff19168515159081179091558251938452908301527f0f1e65ade59c7481302349ccf309e2c26655f60ced75e513269e2e1a6ce9293b91015b60405180910390a15050565b60045434146103765760405162461bcd60e51b815260206004820152601c60248201527f496e73756666696369656e74206f72206578636573732066756e64730000000060448201526064016102b8565b61037e610677565b565b6000546001600160a01b031633146103aa5760405162461bcd60e51b81526004016102b8906109ca565b61037e600061076c565b600580546103c1906109ff565b80601f01602080910402602001604051908101604052809291908181526020018280546103ed906109ff565b801561043a5780601f1061040f5761010080835404028352916020019161043a565b820191906000526020600020905b81548152906001019060200180831161041d57829003601f168201915b505050505081565b3360009081526001602052604090205460ff168061046a57506000546001600160a01b031633145b6104c05760405162461bcd60e51b815260206004820152602160248201527f43616c6c657220646f6573206e6f7420686176652041646d696e2041636365736044820152607360f81b60648201526084016102b8565b600455565b6000546001600160a01b031633146104ef5760405162461bcd60e51b81526004016102b8906109ca565b60405163a9059cbb60e01b81526001600160a01b0382811660048301526024820184905284169063a9059cbb90604401602060405180830381600087803b15801561053957600080fd5b505af115801561054d573d6000803e3d6000fd5b505050506040513d601f19601f82011682018060405250810190610571919061086d565b50505050565b6000546001600160a01b031633146105a15760405162461bcd60e51b81526004016102b8906109ca565b60405133904780156108fc02916000818181858888f193505050501580156105cd573d6000803e3d6000fd5b50565b6000546001600160a01b031633146105fa5760405162461bcd60e51b81526004016102b8906109ca565b6001600160a01b03811661065f5760405162461bcd60e51b815260206004820152602660248201527f4f776e61626c653a206e6577206f776e657220697320746865207a65726f206160448201526564647265737360d01b60648201526084016102b8565b6105cd8161076c565b6001600160a01b03163b151590565b60025460405163d0def52160e01b815233916000916001600160a01b039091169063d0def521906106af9085906005906004016108bc565b602060405180830381600087803b1580156106c957600080fd5b505af11580156106dd573d6000803e3d6000fd5b505050506040513d601f19601f8201168201806040525081019061070191906108a3565b6001600160a01b0383166000908152600360205260409020805460010190559050600454604080518381526001600160a01b0385166020820152908101919091527f66f5cd880edf48cdde6c966e5da0784fcc4c5e85572b8b3b62c4357798d447d790606001610319565b600080546001600160a01b038381166001600160a01b0319831681178455604051919092169283917f8be0079c531659141344cd1fd0a4f28419497f9722a3daafe3b4186f6b6457e09190a35050565b80356001600160a01b03811681146107d357600080fd5b919050565b6000602082840312156107ea57600080fd5b6107f3826107bc565b9392505050565b6000806040838503121561080d57600080fd5b610816836107bc565b9150602083013561082681610a3a565b809150509250929050565b60008060006060848603121561084657600080fd5b61084f846107bc565b925060208401359150610864604085016107bc565b90509250925092565b60006020828403121561087f57600080fd5b81516107f381610a3a565b60006020828403121561089c57600080fd5b5035919050565b6000602082840312156108b557600080fd5b5051919050565b60018060a01b0383168152600060206040818401526000845481600182811c9150808316806108ec57607f831692505b85831081141561090a57634e487b7160e01b85526022600452602485fd5b6040880183905260608801818015610929576001811461093a57610965565b60ff19861682528782019650610965565b60008b81526020902060005b8681101561095f57815484820152908501908901610946565b83019750505b50949a9950505050505050505050565b600060208083528351808285015260005b818110156109a257858101830151858201604001528201610986565b818111156109b4576000604083870101525b50601f01601f1916929092016040019392505050565b6020808252818101527f4f776e61626c653a2063616c6c6572206973206e6f7420746865206f776e6572604082015260600190565b600181811c90821680610a1357607f821691505b60208210811415610a3457634e487b7160e01b600052602260045260246000fd5b50919050565b80151581146105cd57600080fdfea26469706673582212208be3f8a4e5afe5d03402f23dcc3e32449200185393bfc25fd73e860b2916182464736f6c63430008070033",
  "devdoc": {
    "kind": "dev",
    "methods": {
      "isAdmin(address)": {
        "params": {
          "admin": "- Address of Admin"
        }
      },
      "owner()": {
        "details": "Returns the address of the current owner."
      },
      "renounceOwnership()": {
        "details": "Leaves the contract without owner. It will not be possible to call `onlyOwner` functions anymore. Can only be called by the current owner. NOTE: Renouncing ownership will leave the contract without an owner, thereby removing any functionality that is only available to the owner."
      },
      "setAdmin(address,bool)": {
        "params": {
          "admin": "- Address of Admin",
          "enabled": "- Enable/Disable Admin Access"
        }
      },
      "setPrice(uint256)": {
        "params": {
          "_price": "- New price for sale of NFT"
        }
      },
      "transferOwnership(address)": {
        "details": "Transfers ownership of the contract to a new account (`newOwner`). Can only be called by the current owner."
      },
      "withdrawETH()": {
        "details": "- only owner can withdraw funds"
      },
      "withdrawTokens(address,uint256,address)": {
        "details": "- only owner can withdraw tokens"
      }
    },
    "version": 1
  },
  "userdoc": {
    "kind": "user",
    "methods": {
      "isAdmin(address)": {
        "notice": "- Check Admin Access"
      },
      "purchase()": {
        "notice": "- Purchase an NFT"
      },
      "setAdmin(address,bool)": {
        "notice": "- Set Admin Access"
      },
      "setPrice(uint256)": {
        "notice": "- Set price for purchasing NFT"
      },
      "withdrawETH()": {
        "notice": "- withdraw native tokens from contract"
      },
      "withdrawTokens(address,uint256,address)": {
        "notice": "- withdraw ERC20 tokens sent to this contract"
      }
    },
    "version": 1
  },
  "storageLayout": {
    "storage": [
      {
        "astId": 7,
        "contract": "src/sale/NFTSale.sol:NFTSale",
        "label": "_owner",
        "offset": 0,
        "slot": "0",
        "type": "t_address"
      },
      {
        "astId": 2314,
        "contract": "src/sale/NFTSale.sol:NFTSale",
        "label": "_admins",
        "offset": 0,
        "slot": "1",
        "type": "t_mapping(t_address,t_bool)"
      },
      {
        "astId": 2153,
        "contract": "src/sale/NFTSale.sol:NFTSale",
        "label": "nftContract",
        "offset": 0,
        "slot": "2",
        "type": "t_contract(TestorinoNFT)2133"
      },
      {
        "astId": 2158,
        "contract": "src/sale/NFTSale.sol:NFTSale",
        "label": "userPurchases",
        "offset": 0,
        "slot": "3",
        "type": "t_mapping(t_address,t_struct(Counter)1532_storage)"
      },
      {
        "astId": 2160,
        "contract": "src/sale/NFTSale.sol:NFTSale",
        "label": "price",
        "offset": 0,
        "slot": "4",
        "type": "t_uint256"
      },
      {
        "astId": 2162,
        "contract": "src/sale/NFTSale.sol:NFTSale",
        "label": "placeholderURI",
        "offset": 0,
        "slot": "5",
        "type": "t_string_storage"
      }
    ],
    "types": {
      "t_address": {
        "encoding": "inplace",
        "label": "address",
        "numberOfBytes": "20"
      },
      "t_bool": {
        "encoding": "inplace",
        "label": "bool",
        "numberOfBytes": "1"
      },
      "t_contract(TestorinoNFT)2133": {
        "encoding": "inplace",
        "label": "contract TestorinoNFT",
        "numberOfBytes": "20"
      },
      "t_mapping(t_address,t_bool)": {
        "encoding": "mapping",
        "key": "t_address",
        "label": "mapping(address => bool)",
        "numberOfBytes": "32",
        "value": "t_bool"
      },
      "t_mapping(t_address,t_struct(Counter)1532_storage)": {
        "encoding": "mapping",
        "key": "t_address",
        "label": "mapping(address => struct Counters.Counter)",
        "numberOfBytes": "32",
        "value": "t_struct(Counter)1532_storage"
      },
      "t_string_storage": {
        "encoding": "bytes",
        "label": "string",
        "numberOfBytes": "32"
      },
      "t_struct(Counter)1532_storage": {
        "encoding": "inplace",
        "label": "struct Counters.Counter",
        "members": [
          {
            "astId": 1531,
            "contract": "src/sale/NFTSale.sol:NFTSale",
            "label": "_value",
            "offset": 0,
            "slot": "0",
            "type": "t_uint256"
          }
        ],
        "numberOfBytes": "32"
      },
      "t_uint256": {
        "encoding": "inplace",
        "label": "uint256",
        "numberOfBytes": "32"
      }
    }
  }
}